S00B00004C43442E7372656346
S11300000C942A000C943F000C943F000C943F0085
S11300100C943F000C943F000C943F000C943F0060
S11300200C943F000C943F000C943F000C943F0050
S11300300C943F000C943F000C943F000C943F0040
S11300400C943F000C943F000C943F000C943F0030
S11300500C943F0011241FBECFE5D8E0DEBFCDBF16
S113006010E0A0E6B0E0E2E8F6E002C005900D92F0
S1130070A836B107D9F70E9402020C943F030C94EE
S11300800000CF93C82F40E063E080E00E944D025F
S11300908FEC97E00197F1F700C0000041E062E0C7
S11300A080E00E944D028FEC97E00197F1F700C0C9
S11300B000004C2F407150E0559547955595479554
S11300C0559547955595479560E081E00E944D020E
S11300D04C2F407250E05595479555954795559549
S11300E04795559547955595479561E081E00E9460
S11300F04D024C2F407450E0042E452F000C441F39
S1130100550B000C441F551F62E081E00E944D0214
S11301104C2F441F4427441F64E081E00E944D0299
S11301208FEC97E00197F1F700C0000040E062E037
S113013080E00E944D028FEC97E00197F1F700C038
S1130140000041E062E080E00E944D028FEC97E005
S11301500197F1F700C000004C2F417060E081E08E
S11301600E944D024C2F427050E05595479561E036
S113017081E00E944D024C2F447050E05595479504
S11301805595479562E081E00E944D02C8704C2F5E
S113019050E055954795559547955595479564E095
S11301A081E00E944D028FEC97E00197F1F700C0C7
S11301B0000040E062E080E00E944D028FEC97E096
S11301C00197F1F700C00000CF91089541E063E08A
S11301D080E00E94C60241E062E080E00E94C60224
S11301E08FE39CE90197F1F700C0000041E060E073
S11301F081E00E94C60241E061E081E00E94C60203
S113020041E062E081E00E94C60241E064E081E0F6
S11302100E94C60283E30E94410082E30E944100DF
S113022088E20E9441008CE00E94410081E00E942B
S113023041000895CF93C82F41E063E080E00E941D
S11302404D028FEC97E00197F1F700C0000041E008
S113025062E080E00E944D028FEC97E00197F1F795
S113026000C000004C2F407150E0559547955595BE
S11302704795559547955595479560E081E00E94CF
S11302804D024C2F407250E0559547955595479532
S113029055954795559547955595479561E081E066
S11302A00E944D024C2F407450E0042E452F000C48
S11302B0441F550B000C441F551F62E081E00E944F
S11302C04D024C2F441F4427441F64E081E00E94E8
S11302D04D028FEC97E00197F1F700C0000040E079
S11302E062E080E00E944D028FEC97E00197F1F705
S11302F000C0000041E062E080E00E944D028FEC0B
S113030097E00197F1F700C000004C2F417060E0C6
S113031081E00E944D024C2F427050E05595479564
S113032061E081E00E944D024C2F447050E05595ED
S113033047955595479562E081E00E944D02C8704B
S11303404C2F50E0559547955595479555954795AC
S113035064E081E00E944D028FEC97E00197F1F791
S113036000C0000040E062E080E00E944D028FEC9B
S113037097E00197F1F700C00000CF910895CF9363
S1130380DF93EC0103C00E941A0121968881811138
S1130390FACFDF91CF910895813059F028F082305F
S11303A069F0833081F0089580E8860F0E9441004F
S11303B0089580EC860F0E944100089584E9860F19
S11303C00E944100089584ED860F0E944100089523
S11303D00F931F93CF938B0190E00896880F880F9B
S11303E0880F0E944100C0E007C0F801EC0FF11D26
S11303F080810E941A01CF5FC830B8F3CF911F915A
S11304000F910895CF93DF93CDB7DEB728970FB63A
S1130410F894DEBF0FBECDBF0E94E600BE016F5F41
S11304207F4F88E0FB0111928A95E9F786E0898382
S11304308A839FE09B838C838D839E839F8381E04B
S11304400E94E80160E080E00E94CC0181E00E940B
S11304501A0163E080E00E94CC0180E690E00E94F3
S1130460BF0110E301C010E301E0010F812F0E94DE
S11304701A01FFEF24E38CE0F15020408040E1F7C3
S113048000C0000063E082E00E94CC011E5F802F68
S11304900E941A01193341F7E6CF813019F130F087
S11304A08230E1F1833009F455C00895442319F0F2
S11304B0413069F008952BB381E090E002C0880FC9
S11304C0991F6A95E2F7809582238BBB08952BB31D
S11304D081E090E002C0880F991F6A95E2F7822BB1
S11304E08BBB0895442319F0413069F0089528B373
S11304F081E090E002C0880F991F6A95E2F7809529
S1130500822388BB089528B381E090E002C0880F5D
S1130510991F6A95E2F7822B88BB0895442319F04A
S1130520413069F0089525B381E090E002C0880F5E
S1130530991F6A95E2F78095822385BB089525B3B8
S113054081E090E002C0880F991F6A95E2F7822B40
S113055085BB0895442319F0413069F0089522B30E
S113056081E090E002C0880F991F6A95E2F78095B8
S1130570822382BB089522B381E090E002C0880FF9
S1130580991F6A95E2F7822B82BB0895813019F195
S113059030F08230E1F1833009F455C008954423EA
S11305A019F0413069F008952AB381E090E002C067
S11305B0880F991F6A95E2F7809582238ABB089574
S11305C02AB381E090E002C0880F991F6A95E2F790
S11305D0822B8ABB0895442319F0413069F00895B1
S11305E027B381E090E002C0880F991F6A95E2F773
S11305F08095822387BB089527B381E090E002C0F1
S1130600880F991F6A95E2F7822B87BB08954423CC
S113061019F0413069F0089524B381E090E002C0FC
S1130620880F991F6A95E2F78095822384BB089509
S113063024B381E090E002C0880F991F6A95E2F725
S1130640822B84BB0895442319F0413069F0089546
S113065021B381E090E002C0880F991F6A95E2F708
S11306608095822381BB089521B381E090E002C08C
S1130670880F991F6A95E2F7822B81BB0895F8943D
S1050680FFCFA6
S10B06826B68616C6564000003
S9030000FC
